{
  "_format": "hh-sol-artifact-1",
  "contractName": "FocusGame",
  "sourceName": "contracts/FocusGame.sol",
  "abi": [
    {
      "anonymous": false,
      "inputs": [
        {
          "indexed": true,
          "internalType": "address",
          "name": "player",
          "type": "address"
        },
        {
          "indexed": false,
          "internalType": "uint256",
          "name": "score",
          "type": "uint256"
        },
        {
          "indexed": false,
          "internalType": "uint256",
          "name": "newBest",
          "type": "uint256"
        }
      ],
      "name": "GameFinished",
      "type": "event"
    },
    {
      "inputs": [
        {
          "internalType": "address",
          "name": "",
          "type": "address"
        }
      ],
      "name": "bestScore",
      "outputs": [
        {
          "internalType": "uint256",
          "name": "",
          "type": "uint256"
        }
      ],
      "stateMutability": "view",
      "type": "function"
    },
    {
      "inputs": [
        {
          "internalType": "address",
          "name": "",
          "type": "address"
        }
      ],
      "name": "gamesCompleted",
      "outputs": [
        {
          "internalType": "uint256",
          "name": "",
          "type": "uint256"
        }
      ],
      "stateMutability": "view",
      "type": "function"
    },
    {
      "inputs": [
        {
          "internalType": "uint256",
          "name": "score",
          "type": "uint256"
        }
      ],
      "name": "submitGameResult",
      "outputs": [],
      "stateMutability": "nonpayable",
      "type": "function"
    }
  ],
  "bytecode": "0x608060405234801561001057600080fd5b506104da806100206000396000f3fe608060405234801561001057600080fd5b50600436106100415760003560e01c8063160b62d514610046578063bbedea6914610076578063dc0c695f14610092575b600080fd5b610060600480360381019061005b91906102e1565b6100c2565b60405161006d9190610327565b60405180910390f35b610090600480360381019061008b919061036e565b6100da565b005b6100ac60048036038101906100a791906102e1565b610266565b6040516100b99190610327565b60405180910390f35b60006020528060005260406000206000915090505481565b6000811161011d576040517f08c379a0000000000000000000000000000000000000000000000000000000008152600401610114906103f8565b60405180910390fd5b60016000803373ffffffffffffffffffffffffffffffffffffffff1673ffffffffffffffffffffffffffffffffffffffff168152602001908152602001600020600082825461016c9190610447565b925050819055506000600160003373ffffffffffffffffffffffffffffffffffffffff1673ffffffffffffffffffffffffffffffffffffffff16815260200190815260200160002054905060008114806101c557508082105b156102125781600160003373ffffffffffffffffffffffffffffffffffffffff1673ffffffffffffffffffffffffffffffffffffffff168152602001908152602001600020819055508190505b3373ffffffffffffffffffffffffffffffffffffffff167f78a60e74fb8763e847bf469d5a723591e763dc72c2bb6a63e0fb5e6b697a311f838360405161025a92919061047b565b60405180910390a25050565b60016020528060005260406000206000915090505481565b600080fd5b600073ffffffffffffffffffffffffffffffffffffffff82169050919050565b60006102ae82610283565b9050919050565b6102be816102a3565b81146102c957600080fd5b50565b6000813590506102db816102b5565b92915050565b6000602082840312156102f7576102f661027e565b5b6000610305848285016102cc565b91505092915050565b6000819050919050565b6103218161030e565b82525050565b600060208201905061033c6000830184610318565b92915050565b61034b8161030e565b811461035657600080fd5b50565b60008135905061036881610342565b92915050565b6000602082840312156103845761038361027e565b5b600061039284828501610359565b91505092915050565b600082825260208201905092915050565b7f53636f7265206d7573742062652076616c696400000000000000000000000000600082015250565b60006103e260138361039b565b91506103ed826103ac565b602082019050919050565b60006020820190508181036000830152610411816103d5565b9050919050565b7f4e487b7100000000000000000000000000000000000000000000000000000000600052601160045260246000fd5b60006104528261030e565b915061045d8361030e565b925082820190508082111561047557610474610418565b5b92915050565b60006040820190506104906000830185610318565b61049d6020830184610318565b939250505056fea26469706673582212200df70bf540eb002b27a86b7e3d00b9d0168a5cc9e1a56e3372121c4759984ff664736f6c63430008130033",
  "linkReferences": {},
  "deployedLinkReferences": {}
}